:020000040800F2
:10000000481F002071180108F9190108FD1901089D
:10001000011A0108051A0108091A01080000000068
:100020000000000000000000000000000D1A0108A0
:10003000111A010800000000151A010885C1000806
:1000400049B100080B730008251A0108CDE000082B
:100050002D1A01080DBD0008F9A3000813A400081B
:100060002DA4000847A4000861A40008491A01084B
:100070004D1A0108511A0108551A0108591A0108A8
:100080005D1A0108611A0108651A0108691A010858
:100090006D1A0108711A0108751A01087BA400087D
:1000A0007D1A0108796E0008D3BB000803E200083E
:1000B0006BBC0008911A0108951A0108991A0108E9
:1000C0009D1A0108A11A0108A51A0108A91A010818
:1000D000AD1A010817BF0008B51A0108B91A0108BE
:1000E00027A500080DE10008C51A0108C91A010872
:1000F000CD1A010810F007007047C0F3C100C0B26C
:100100007047C0F34110C0B270474FF69F72104065
:10011000C9B250EA411080B27047C0F3C01080B23B
:1001200070474FF67F72104050EAC11080B270479E
:1001300080B2000A80B27047DFF8781CC0B2401865
:10014000407880B2704780B5C0B2FFF7F5FF01215B
:1001500080B2FFF7E6FF02BDDFF8581CC0B24018BE
:100160004078FF2801D0012000E00020C0B2704795
:1001700010B50C0002E0C0B200F0DAF921004C1E0C
:10018000C9B20029F7D1C0B210BD0178407851EA58
:10019000002080B270470178427851EA02218278CB
:1001A00051EA0241C07851EA00607047C178827814
:1001B00051EA0221427851EA0241007851EA006096
:1001C0007047017089B2090A4170704701700A0ACC
:1001D00042700A0C8270090EC1707047C1700A0A21
:1001E00082700A0C4270090E01707047FF20704740
:1001F0002DE9F04104000D0017001E00102100221F
:10020000DFF8B48B404603F0F7FF4920DFF8A81B66
:100210000870002F04D00120DFF89C1B487103E018
:100220000020DFF8941B4871DFF88C0BC6732100A7
:10023000DFF8880BFFF7CAFF2900DFF8480CFFF74B
:10024000C5FFBDE8F08170B50400080011001A0078
:10025000059D2B00FFF7CCFF1022DFF82C6C21004E
:10026000300004F013F8049C2A0092B2210002200E
:1002700004F0BAF806002819FFF798FF864201D16A
:10028000012000E00020C0B270BD70B5040008007D
:1002900011001A00059D2B00FFF7AAFF1022DFF8BE
:1002A000E86B2100300003F0F1FF049C2A0092B2B9
:1002B0002100022004F098F801002819FFF78EFFB2
:1002C00070BD38B504000D00DFF8BC0B05F027FE4B
:1002D0002A0092B221000A2004F086F801002819B1
:1002E000FFF77CFF31BD70B504000D00DFF8980BFF
:1002F00005F015FE2A0092B221000A2004F074F8DD
:1003000006002819FFF752FF864201D1012000E0C4
:100310000020C0B270BD38B504000D00DFF8680BD6
:1003200005F0FDFD2A0092B22100002004F05CF8E7
:1003300031BD2DE9F84304000E0017009846099DD1
:10034000012D33DB10210022DFF86C9A484603F0C0
:1003500053FF0120DFF8601AC873DFF85C0AC07B26
:10036000DFF8541A0870B8F1000F04D00120DFF84C
:10037000481A487103E00020DFF83C1A4871310048
:10038000DFF8380AFFF722FF3900DFF8F80AFFF735
:100390001DFF1022DFF8F06A2100300003F076FF25
:1003A0002A0092B20899042004F01EF8BDE8F183F7
:1003B0002DE9F04106000F0014001D00102100225D
:1003C000200003F019FF01202070062214F101081B
:1003D0003900404603F05AFF310089B2E01DFFF7B3
:1003E000F0FE10222100280003F050FF02202870A8
:1003F000DFF8940A05F093FD10222100002003F09D
:10040000F3FFDFF8840A05F08AFD1022290000209E
:1004100003F0EAFFBDE8F081DFF8701A097DC0B291
:10042000814208D3DFF8641A91F91310C0B2B1EB1E
:10043000400040B200E000207047DFF8500A90F81A
:100440005906012801D1012000E000207047002159
:1004500000E0491CC9B2102915DADFF8302AB2F8D9
:10046000A02101238B401A42F3D001228240521E68
:10047000DFF8183AC9B213EB4103B3F880311A42DE
:10048000E7D0002000E001207047DFF8D02CC9B28F
:1004900012EB4101B1F880110A000241D00701D5E9
:1004A000012000E00020704770B504000D00002618
:1004B00000E0761CF6B2102E1DDADFF8A00CF6B2C2
:1004C00010EB860090F8000110F00700EDB2A84292
:1004D000EFD1DFF8880CB0F8A0010121B14008424B
:1004E000E7D03100C9B22000C0B2FFF7CEFF00282C
:1004F000DFD0012000E0002070BD70B504000D00C9
:10050000002600E0761CF6B2102E0FDA0120B04073
:10051000290089B20142F5D03100C9B22000C0B231
:10052000FFF7B3FF0028EDD0012000E0002070BDF0
:1005300038B5040025002000C0B2FFF788FF00286E
:1005400014D1641EDFF84409B0F8A0112000C0B235
:10055000FFF7D3FF0028EED0DFF85808E4B22018E8
:100560004078FF28E7D02000C0B201E02800C0B2E8
:1005700032BD2DE9F04704008846200080B2FFF725
:10058000BCFD0500200080B2FFF7B4FD0600F6B206
:10059000002E0BD15FFA88F818F10B005FF4802170
:1005A00048434CF2503190FBF1F05BE0B01DC0B21B
:1005B0008700F6B2052E01DB082000E00020B7EB33
:1005C0000009200080B2FFF7A8FD002802D05FF0EC
:1005D000000A01E05FF0100A200080B2FFF7A8FDDA
:1005E000002801D0142000E000205FFA88F8FFB254
:1005F000D7EBC8011AEB01011C31B1EB0008B8F1CF
:10060000010F12DB5FFA89F919EB0800401E5FFA4F
:1006100089F990FBF9F8200080B2FFF772FD401DC8
:1006200000FB08F818F1080801E05FF008085FEA2D
:10063000880010F13108701C471B43F60951FFB2C6
:10064000052F04DB3A1F080001001141042718FAA6
:1006500007F04FF40042022391FBF3F302FB00305A
:1006600090FBF1F0BDE8F08738B5040005F0B5FF68
:100670000500EDB205F0B1FF50EA052189B208008E
:10068000B0F5004F06DD89B24FF4004291FBF2F065
:1006900000FB1210E4B2002C09D0C9B2E4B291FB05
:1006A000F4F204FB12114FF4004202FB010032BDD0
:1006B00070B504000C19002514E0307B002810D11F
:1006C000B068A0420DDA16F1100006F012F8B4601E
:1006D00000203073DFF89C2CB16816F1100006F092
:1006E00034F86D1CDFF8740A90F8FC00EDB2854216
:1006F0001CD2DFF8680AEDB2242101FB050010F1DD
:10070000240696F820000028EBD03088002802D07C
:10071000307B0028D1D0B46000203073DFF8542C37
:10072000B16816F1100006F010F8DAE770BDDFF8D6
:100730002C0A80F8B011704752B212F1800F03D02A
:10074000DFF8180A80F8AF21DFF8100A90F8B0013E
:10075000C9B288420DD0DFF8040A80F8B011DFF882
:10076000FC09B0F8AC0150F40060DFF8F019A1F812
:10077000AC017FF03F00DFF8E41981F8E102704737
:10078000DFF8D80990F92800704738B504004021F7
:100790000022DFF8E45B280003F02EFD4021002258
:1007A000DFF8D85B280003F027FD20210022DFF8C6
:1007B000D85C280003F020FD0020DFF8A01981F8A4
:1007C00035040020DFF8941981F83C040020DFF89C
:1007D0008C1981F844040020DFF8801981F8450461
:1007E000DFF8780990F861060A380A280AD2012051
:1007F000DFF8681981F871060120DFF8601981F8C7
:10080000720609E00020DFF8541981F87106002013
:10081000DFF8481981F8720603F07FFADFF8B02C90
:100820002100C9B2DFF8340990F8610603F0BAFB81
:100830000020DFF82819A1F8A001DFF8940C007857
:10084000DFF8181981F86206002413E05FF0FF3327
:10085000DFF87C0CE4B210EB4400B0F84420DFF881
:10086000700CE4B210EB840041682000C0B200F0CC
:10087000EDF8641CDFF8580C0078E4B28442E5D34C
:10088000DFF84C0C90F86400DFF8D01881F8EA0229
:10089000DFF83C0C806EDFF8C418C1F8EC0231BD03
:1008A000002108E0DFF8B428C9B2242303FB0122A9
:1008B00024321071491CDFF8A42892F8FC20C9B238
:1008C0009142EFD37047DFF8940890F8610610F07A
:1008D0007F00C0B2401E05D0801E28D0C01F09284E
:1008E00020D928E04FF47A70DFF8701888846420EB
:1008F000DFF86818A1F848006420DFF86018A1F854
:100900006C004FF47A70DFF85418A1F890000A20B8
:10091000DFF84818A1F8B4006420DFF84018A1F807
:10092000D80008E06420DFF83418888403E0002051
:10093000DFF828188884704710B5C0B2002802D0AC
:10094000FFF7C1FF1BE0002412E0DFF81008E4B25B
:10095000242101FB040024300021018090F82010A4
:10096000002904D001210173103005F0C2FE641C7F
:10097000DFF8E80790F8FC00E4B28442E5D310BD4C
:1009800010B5DFF8D817C0B211EB800090F8000165
:1009900010F00704DFF8C407E4B2242101FB0400CF
:1009A00090F84400002811D10120DFF8B017E4B21C
:1009B000242202FB041181F8300005F088FEDFF8E4
:1009C0009C17E4B2242202FB0411C862DFF88C07F2
:1009D000E4B2242101FB040090F84400401CDFF83D
:1009E0007C17E4B2242202FB041181F8440010BDFC
:1009F000DFF86817C0B211EB800090F8000110F02A
:100A00000700DFF85817C0B2242202FB001191F84A
:100A10004410491EDFF84427C0B2242303FB002200
:100A200082F84410DFF83417C0B2242202FB001110
:100A300091F84410002908D10021DFF82027C0B226
:100A4000242303FB002080F83010704770B50400A9
:100A50000E0015001800E4B2102C01DB002043E06A
:100A600040B210F1010F02D1300003F057FAF10843
:100A7000C90040B250EA0106DFF8E006E4B210EB2C
:100A80008400D0F80001002803D02000C0B200F09C
:100A90002CF8DFF8C806E4B210EB8400C0F800615F
:100AA0000020DFF8B816E4B211EB8401C1F8400170
:100AB000ADB2002D01D13F25FFE7DFF8A006E4B27B
:100AC00010EB4400A0F88051DFF89006B0F8A001C8
:100AD0000121A1400843DFF88416A1F8A0012000FD
:100AE000C0B2FFF74DFF012070BD10B50400DFF864
:100AF0006C06E4B210EB8400D0F8000100282ED080
:100B0000DFF85806B0F8A0010121A140084203D047
:100B10002000C0B2FFF76CFF0020DFF84016E4B2FF
:100B200011EB8401C1F800010020DFF83016E4B2B7
:100B300011EB8401C1F840010020DFF82016E4B277
:100B400011EB4401A1F88001DFF81006B0F8A00114
:100B50000121A1408843DFF80416A1F8A00110BDCF
:100B600080B5401EFFF717FB000A64214843C749C0
:100B700091F8611611F07F01C9B2012918D002293C
:100B800028D003291DD00A292DD00B2934D00C29B7
:100B90003BD00D2942D00E2949D00F2950D0102921
:100BA00057D011295ED0122965D013296CD074E07A
:100BB000DFF8F81A411ADFF8F82A914200D3002032
:100BC00073E0DFF8F01A411ADFF8EC2A914200D303
:100BD00000206AE0DFF8E41A411ADFF8E42A9142C3
:100BE00000D3002061E0DFF8DC1A411ADFF8C82AE0
:100BF000914200D3002058E0DFF8C81A411ADFF80C
:100C0000B82A914200D300204FE0DFF8B81A411A09
:100C1000DFF8A42A914200D3002046E0DFF8A81AAA
:100C2000411ADFF8A82A914200D300203DE0DFF806
:100C3000941A411ADFF8802A914200D3002034E050
:100C4000DFF88C1A411ADFF88C2A914200D3002079
:100C50002BE0DFF8741A411ADFF87C2A914200D3A6
:100C6000002022E0DFF8741A411ADFF8742A91425A
:100C700000D3002019E0DFF8501A411ADFF8582A93
:100C8000914200D3002010E0DFF83C1A411ADFF84F
:100C9000482A914200D3002007E0DFF8101A411AD9
:100CA000DFF80C2A914200D3002002BD38B50400C1
:100CB000002504E02800C0B2FFF79AFE6D1CEDB2DB
:100CC000102D19DAA4B20120A8402040DFF88C14BE
:100CD000B1F8A0110122AA4011408842EED0DFF8FD
:100CE0007C04B0F8A0010121A9400842E2D028000C
:100CF000C0B2FFF745FEE1E731BD002000210BE067
:100D0000624AC9B212EB8102D2F80021002A02D055
:100D100001228A401043491CC9B21029F0DB80B27D
:100D2000704780B502000020D2B2602A02D1FFF7DE
:100D3000E4FF00E0080080B202BD38B504000800FE
:100D40005249B1F8A051A4B2002C01D1002026E0F4
:100D5000002100E0491CC9B210290FDA01228A40A3
:100D600023009BB21342F5D0484AC9B212EB81026C
:100D7000D2F80021002AEDD1002010E0210089B234
:100D8000C0B2FFF7BAFB002801D1022007E03F48BC
:100D9000A0F8A041280080B2FFF788FF012032BDF3
:100DA000DFF8B813007B242202FB0010243001215D
:100DB00001737047A81901083C1600204216002054
:100DC000F8B50400DFF89403DFF8901391F8A2114E
:100DD00010EB8100D0F80051DFF8800390F8071382
:100DE000DFF87803C089FFF7C4FB06004FF47A7080
:100DF00080FB06014FF40042002305F02FFDDFF8D1
:100E00005C13C1F86C06DFF8540315F007012422C7
:100E100002FB010010F12407E808C000CF498860F8
:100E200097F9020097F90410884203DAB878CB49A1
:100E3000887402E03879C9498874388800FB064014
:100E4000B8603888002809D000203873DFF82425DE
:100E5000B96817F1100005F078FC04E00120387340
:100E600005F035FCB860BD4890F8A301002808D013
:100E7000BA4890F9A30116FA00F00019B749C1F871
:100E8000A401F1BD461600204C1100207000002086
:100E90002DE9F04385B004000D00FF26DFF844087B
:100EA00007195FF0000820E0AC485FFA88F82421B9
:100EB00001FB080090F83000002814D0DFF8240867
:100EC000001987420FD14146C9B2A44890F8B00139
:100ED000FFF7EAFA002806D04646A048F6B22421D9
:100EE00001FB0600C76A18F101089C4890F8FC0055
:100EF0005FFA88F8804524D298485FFA88F8242160
:100F000001FB0800C06A381A0128CDDB93485FFA5C
:100F100088F8242101FB080090F830000028E2D076
:100F20004146C9B28D4890F8B001FFF7BDFA0028DC
:100F3000D9D046468948F6B2242101FB0600C76A8B
:100F4000D1E7381BDFF89C1788424FD1834883498B
:100F500091F8A21110EB810090F8000110F0070049
:100F600010F101087D4890F8FC005FFA88F8804590
:100F700001D15FF000085FF0000930E077485FFAC8
:100F800088F8242101FB0800C06A381A012819DBFF
:100F900072485FFA88F8242101FB080090F84400A9
:100FA00000280FD04146C9B26C4890F8B001FFF755
:100FB0007BFA002806D046466848F6B2242101FB99
:100FC0000600C76A18F10108644890F8FC005FFA4F
:100FD00088F8804501D15FF0000819F101095F48E8
:100FE00090F8FC005FFA89F98145C7D3381BDFF818
:100FF000F416884201D138008DE05FF0000800202F
:1010000019E0F6B25549C0B211EB800191F8001118
:1010100011F007018E420DD15049B1F8A011012203
:101020008240114206D000A95FFA88F808F8010052
:1010300018F10108401CC0B21028E2DB05F0CDFA1F
:101040005FFA88F890FBF8F108FB1101002013E02B
:10105000491C424AF6B2242303FB062292F844209C
:10106000C9B2914207D33D4AF6B2242303FB0622BC
:1010700092F84420891A401C384AF6B2242303FB14
:10108000062292F84420C0B2904241D200AAC9B2CE
:101090008B5C324AB2F8A0215FF0010C1CFA03FC11
:1010A00012EA0C0FD4D02D4ADBB212EB4302B2F895
:1010B0008021DFF8A8C09CF8B0C11CF00F0C964648
:1010C0001FFA8EFE3EFA0CFE5FEACE72C0D5F6B273
:1010D000224ADBB212EB830292F8002112F00702DF
:1010E0009642B5D1EDB2002D10D11C48F6B22421A4
:1010F00001FB060080F829301848F6B2242101FBD4
:10110000060090F82900154981F8A201380002E094
:10111000DFF8D005001905B0BDE8F0830F4991F85C
:10112000611611F07F01C9B2032903D0C9B20A398F
:101130000A2910D2C0B2062801DA40B20CE0C0B2CF
:10114000062802D15FF0FF3006E0C0B2072802D1C6
:101150007FF0010000E040B2704700007000002006
:1011600080B5DFF85C0C90F83504FFF7D7FF00215D
:10117000DFF84C2C92F87226002A00D00221DFF80A
:10118000402C527C40B2121AC9B28A4204DADFF80B
:10119000300C80F836141BE0DFF8241C91F8701630
:1011A000DFF81C2C527C40B2121A914208DADFF8A8
:1011B000100C90F87006DFF8081C81F8360407E080
:1011C000DFF8FC1B497C081ADFF8F41B81F83604B1
:1011D000DFF8EC0BDFF8E81B91F8A21110EB8100AF
:1011E000D0F84001002807D1DFF8D40B8068DFF881
:1011F000D01BC1F838040DE0DFF8C40BDFF8C01BCA
:1012000091F8A21110EB8100D0F84001DFF8B01B7B
:10121000C1F8380401BD80B50E20DFF8A41B81F8A9
:10122000AF01DFF89C0B90F861060A380A2804D257
:1012300002210020FFF77BFA03E005210020FFF7E1
:1012400076FA0120FFF7A1FA05F0C7F9DFF8701B65
:1012500091F8621690FBF1F201FB1200DFF8601BBF
:1012600081F8A20105F033FADFF8541B086001BDD4
:1012700038B5002405F02BFA0021FFF709FEDFF84E
:10128000400BB0F8AC014FF2FF710840DFF8301BA3
:10129000A1F8AC0105F01BFA0500DFF8240BDFF81C
:1012A000201B91F8A21110EB8100D0F80001DFF8AB
:1012B000101B10F00700242202FB0010243081686C
:1012C000691A002900D58568FF21DFF8F40A90F932
:1012D000B02108001041C0B2FFF7C6F9401910F55F
:1012E0000040DFF8DC1A0860DFF8D40A90F86106E5
:1012F0000A380A2818D2DFF8C80A90F80403401CFC
:10130000DFF8BC1A81F80403DFF8B40A90F804038C
:10131000082807DADFF8A80A90F8B0110120FFF7D3
:1013200006FA23E0012421E0DFF8940A90F8040390
:10133000401CDFF88C1A81F80403DFF8840A90F867
:101340000403C00712D4DFF8780A90F8B00100282F
:1013500001D101240AE0DFF8680A90F8B001FFF734
:10136000E7F80100C9B20120FFF7E1F9E4B220007B
:1013700032BD0000A10D000870010020B001002066
:1013800080B502F019F801BD80B5C0B204F048FF85
:1013900002F012F801BD80B50020DFF8241AC1F870
:1013A000DC02DFF81C0AD0F8DC02DFF8141AC1F8FE
:1013B000D8020020DFF8081A81F8B2010020DFF817
:1013C000001A81F844040020DFF8F41981F8E502DE
:1013D000DFF8EC1981F8E402DFF8E41981F8E202A1
:1013E000DFF8DC1981F8E0020020DFF8D41981F879
:1013F000E802DFF8CC1981F8E902DFF8C41981F8B6
:10140000F002DFF8BC1981F8E7020020DFF8B0191C
:1014100081F84804DFF8A80990F84804DFF8A0191B
:1014200081F846040020DFF8981981F8F3020020C3
:10143000DFF88C1981F8AE017FF03F00DFF88019EA
:1014400081F8E1020520DFF8781981F80704DFF858
:101450007409DFF86C19C1F800030320DFF8601984
:1014600081F8F4020120DFF8581981F85906DFF8F5
:10147000500990F91220DFF8480990F8471400202D
:10148000FFF75AF901BD0000F001002080B5DFF838
:101490003019097DC0B281420DD3C0B2FEF7BCFF46
:1014A00040B2DFF81C1991F96616401A801E002818
:1014B00001D4012000E0002002BDDFF80419497DBD
:1014C000C0B2814201D3012000E00020704700003B
:1014D00074130020F8B50E0014001F00872531009A
:1014E000C9B280B2FFF729FCC0B2002802D115F0C2
:1014F000FE0504E0C0B2022801D115F0FD05EDB2F1
:1015000015F07F00072832D1DFF8B40880F8AE71FB
:10151000E4B20F2C0BD02000C0B2FEF77DFF02001A
:1015200052B23100C9B20420FFF706F906E07FF09D
:101530007F023100C9B20420FFF7FEF8E4B20F2C9D
:1015400015D000260CE02000C0B2FEF765FFDFF8E2
:101550007018F6B2242202FB061181F82800761CCE
:10156000DFF85C0890F8FC00F6B28642EBD3280066
:10157000C0B2F2BD2DE9F84380460D0016001C00F4
:101580000027DFF83C0890F8E602802832D1872750
:101590005FFA88F85FEA18194846C0B2FEF7DCFD2A
:1015A000002802D117F0FD074FE0DFF8140890F88B
:1015B0007106002807D05FFA89F9B9F1020F02DA43
:1015C00017F0FD0741E018F00F084046C0B2FFF7E2
:1015D0005DFF002802D117F0FB0736E03300DBB2D5
:1015E0004246D2B24946C9B2280080B2FFF772FF24
:1015F00007002AE08027DFF8C80790F87406002863
:1016000003D0022814D001D31FE01EE05FFA88F84F
:10161000B8F1FF0F0BD13300DBB20F22DFF8A007C8
:1016200090F8B011280080B2FFF754FF07000CE0DB
:101630003300DBB20F22DFF8880790F8B0112800E2
:1016400080B2FFF747FF0700FFE7002027E00321F4
:10165000DFF86C27DFF8683793F859349A1882F866
:101660005A14DFF85C1791F85914491CDFF8502719
:1016700082F8591417F00701DFF84427DFF84037E4
:1016800093F859349A1882F85A14DFF8341791F8FD
:101690005914491CDFF8282782F85914401CC0B29D
:1016A000E4B2A042D3D3BDE8F1830000C05570334B
:1016B000C1CF6A0040DA8E3381841E00806DC3354D
:1016C00081BA8C01C0DC03370016D63601127A00CD
:1016D000C0CA8936415DC600414B4C00809AF43641
:1016E000818D5B00000050462DE9F24F82B004006E
:1016F000DFF8CC0690F80D03C0F3401010F00100A5
:10170000002806D1DFF8B80690F8BB01012800F0E8
:1017100054830020DFF8A81681F859040025002022
:101720008DF80000002600275FF0000801E018F1A6
:1017300003080298804580F23383EDB2002D0ED06D
:1017400018F8040003280AD02B00DBB23200D2B212
:10175000390089B29DF80000FFF70CFF002518F84A
:1017600004000228E3D0C0F01B83042800F043816A
:101770000DD306282AD070D3082800F02782C0F0A5
:1017800064810A2800F05482C0F0B68208E36D1C20
:1017900018EB040040788DF8000018EB0400801C62
:1017A000FEF7F3FC18EB0401097911F0F00218EBD5
:1017B0000401097911F00F0618F10508010089B23A
:1017C0001000C0B2FFF7ADFA0700B2E70120DFF862
:1017D000F01581F8E5020620DFF8E415DFF8E025D2
:1017E00092F85924511881F85A04DFF8D40590F87A
:1017F0005904401CDFF8C81581F85904DFF8C0050A
:1018000090F8599419F10100DFF8B41581F85904E2
:10181000FEF7ECFCDFF8A8155FFA89F919EB010176
:1018200081F85A04DFF8980590F8E30210F03F00C1
:10183000DFF88C15DFF8882592F85924511881F8C3
:101840005A04DFF87C0590F85904401CDFF8701545
:1018500081F8590418F101086BE718EB040040788F
:1018600010F00F0918EB04004078C0F3021A18EBCF
:101870000400801CFFF774F9834618F105088020E6
:10188000DFF83C1581F8F0024846C0B2FEF764FC70
:1018900000280AD0DFF8280590F8F00250F0020086
:1018A000DFF81C1581F8F00209E0DFF8140590F864
:1018B000F00210F0FD00DFF8081581F8F002504644
:1018C000C0B2FFF7FAFD00280AD0DFF8F40490F860
:1018D000F00250F00400DFF8E81481F8F00209E0AB
:1018E000DFF8DC0490F8F00210F0FB00DFF8D01411
:1018F00081F8F002BBF1000F0AD0DFF8C40490F8C1
:10190000F00250F00100DFF8B81481F8F00209E0AD
:10191000DFF8AC0490F8F00210F0FE00DFF8A0143D
:1019200081F8F002DFF8980490F8F00287280BD1D4
:10193000DFF88C0480F835A4DFF8840480F8EA929C
:10194000DFF87C04C0F8ECB20520DFF87414DFF88F
:10195000702492F85924511881F85A04DFF8600471
:1019600090F85904401CDFF8581481F85904DFF846
:10197000500490F8F00210F00700DFF84414DFF88C
:10198000402492F85924511881F85A04DFF83004A1
:1019900090F85904401CDFF8281481F859040520F8
:1019A000DFF81C14DFF8182492F85925511881F833
:1019B0005A05DFF80C0490F85905401CDFF80014B4
:1019C00081F85905DFF8F80390F8F00210F00700ED
:1019D000DFF8EC13DFF8E82392F85925511881F865
:1019E0005A05DFF8DC0390F85905401CDFF8D013E6
:1019F00081F859059DE618EB0400407818F10208BB
:101A000010F00F00DFF8B81381F8A30104F05FFEB7
:101A1000DFF8AC13C1F8A4010120DFF8A41381F8AA
:101A2000E8020420DFF89813DFF8942392F8592491
:101A3000511881F85A04DFF8880390F85904401CC3
:101A4000DFF87C1381F8590473E618EB040090F872
:101A5000019018EB0400801CFFF782F8824618EB17
:101A6000040090F805B08020DFF8541381F8E902F3
:101A7000DFF84C0390F86206401E5FFA89F948458A
:101A800077DABAF1000F24D118EB0400807800282F
:101A900016D118EB0400C078002811D118EB04000F
:101AA000007900280CD14846C0B2FFF71EF8C448A0
:101AB00090F8E90250F00300C14981F8E90260E0C2
:101AC000BF4890F8E90210F0FE00BD4981F8E90234
:101AD00057E01BF00F001BF0F0018DF80110C0B2B1
:101AE000FEF73AFB00280ED09DF80100FEF734FB0C
:101AF000002808D0B24890F8E90250F00200B0493E
:101B000081F8E90207E0AE4890F8E90210F0FD0024
:101B1000AB4981F8E9025FF0FF334FF6FF701BF02D
:101B20000F0188404FF6FF715FFA8BFB5FEA1B12D3
:101B3000D2F10F028C465CFA02FC1CEA000292B25F
:101B400051464846C0B2FEF781FF002808D09C48A5
:101B500090F8E90250F00100994981F8E90210E09B
:101B6000974890F8E90210F0FE00954981F8E902E3
:101B700007E0934890F8E90210F0FE00904981F8E0
:101B8000E90218F1060807208D498D4A92F8592478
:101B9000511881F85A048A4890F85904401C884921
:101BA00081F85904864890F8E90210F0030084494E
:101BB000834A92F85924511881F85A04804890F8C1
:101BC0005904401C7E4981F85904B2E518EB040021
:101BD000407810F00F00C0B2002800D10120401E54
:101BE000774981F83C040120754981F8460418F1D1
:101BF000020808207249724A92F85924511881F853
:101C00005A046F4890F85904401C6D4981F85904F2
:101C100008206B496A4A92F85925511881F85A05EB
:101C2000674890F85905401C654981F8590580E5D9
:101C300018EB040090F8019018EB0400801CFEF7EC
:101C40008FFFFC21002801D051F001015C4A5FFAAE
:101C500089F912EB8902D2F80021002A01D051F053
:101C60000201C9B2FF2906D1554A5FFA89F912EB80
:101C70008902C2F8400118F105080A20504A504B69
:101C800093F859349A1882F85A044D4890F8590438
:101C9000401C4B4A82F8590411F00300484A484B53
:101CA00093F859349A1882F85A04454890F8590420
:101CB000401C434A82F859040A20414A404B93F899
:101CC00059359A1882F85A053D4890F85905401C34
:101CD0003B4A82F8590511F003003949384A92F815
:101CE0005925511881F85A05354890F85905401C76
:101CF000334981F859051CE5314890F861060A38E6
:101D00000A284AD218EB04004078C0F34010C0B251
:101D1000002804D001202A4981F8720603E000203F
:101D2000274981F8720618EB04004078C0F30010D0
:101D3000C0B2002804D00120214981F8710603E0D7
:101D400000201F4981F8710618EB0400407810F05C
:101D50000F00DFF82C1CC0B2405640B201F016FF55
:101D6000174890F87106002808D0154890F8B0017F
:101D7000022803DA0220124981F8B0010920104933
:101D80000F4A92F85924511881F85A040C4890F8D7
:101D90005904401C0A4981F8590418F10208C8E4A2
:101DA000EDB2002D09D02B00DBB23200D2B23900E7
:101DB00089B29DF80000FFF7DDFBBDE8F78F00005A
:101DC0007000002008E6D3332DE9F04F85B0DFF82E
:101DD000F46B307810F0E005DFF8A01C91F8079361
:101DE0000021DFF8982C82F86716DFF8901CD1F8F4
:101DF000D8120391B9F10C0F02DB0321084225D060
:101E00002020DFF8781C81F867060020DFF86C1CC2
:101E100081F807030398DFF8641CC1F8D802DFF8E3
:101E20005C0C90F8050300070ED5DFF8500C90F815
:101E30006706002808D0DFF8440C90F86706FF28F2
:101E400002D0152004F0ECF90020FBE196F805B073
:101E5000701CFEF7A0F98246B01DFEF796F9070048
:101E60001BF00F04CBF3401010F00100029014F1AE
:101E70000808B9F10409DFF8040CD0F8D40282454F
:101E80000BD0DFF8F80B90F80503000704D402200C
:101E9000DFF8E81B81F86706B7E7EDB2602D0DD0DB
:101EA000EDB2A02D0AD0DFF8D40B90F8050300079F
:101EB00004D40120DFF8C41B81F86706C14505DAA8
:101EC0002020DFF8B81B81F867069EE75FF0FF3A35
:101ED000C84503DA18F806A018F10108DFF89C0BD2
:101EE000D0F8D802000C60F31F47CDF8049000969C
:101EF00001233A00DFF8840BD0F8D412DFF8800B0E
:101F0000FEF7A1F9002819D117F58037CDF8049014
:101F1000009601233A00DFF8640BD0F8D412DFF802
:101F2000600BFEF790F9002808D10420DFF84C1B65
:101F300081F86706142004F073F966E7DFF83C0BBC
:101F4000D0F8D80287421AD2DFF8300BD0F8D80286
:101F5000401E874202D1EDB2A02D1ED05FF0FF30AF
:101F6000DFF8181BD1F8D812401A3818B0F5804F96
:101F700013D90820DFF8041B81F8670645E7DFF86E
:101F8000FC0AD0F8D802381AB0F5804F05D90820DD
:101F9000DFF8E81A81F8670637E7DFF8E00A90F81B
:101FA000BB01012808D10298002805D14020DFF8A4
:101FB000CC1A81F8670628E7781CDFF8C01AC1F848
:101FC000D8021BF01000DFF8B41A81F84404002096
:101FD000DFF8A81A81F84504EDB2A02D05D1202024
:101FE000DFF8981A81F8E00204E00020DFF88C1A8C
:101FF00081F8E002DFF8840A90F8E002002802D1BC
:102000005FEACB601AD5DFF8740AB0F8AC0150F083
:102010001000DFF8681AA1F8AC01DFF8600A90F848
:10202000340402280AD1DFF8540AB0F8AC014FF6A4
:10203000FE710840DFF8441AA1F8AC010020DFF877
:102040003C1A81F8B201DFF8340A90F8B201DFF8E7
:102050002C1A81F8E202DFF8240A90F9E10210F16B
:10206000800F05D07FF03F00DFF8101A81F8E10201
:10207000DFF8080A90F90D0010F1200F05DAE020D2
:10208000DFF8F81981F8E3020BE0202805DB1F20B8
:10209000DFF8E81981F8E30203E0DFF8E01981F8DE
:1020A000E30216F10805BAF1000F19D4B9EB0800E4
:1020B000012815DBBAF1010F02DADFF8C40901E0EB
:1020C000DFF8C009B9EB0801019118EB0601009196
:1020D00001233A00DFF8A419D1F8D412FEF729F948
:1020E0000020DFF8981981F85905BAF1000F12D1D4
:1020F000B9EB080001280EDB012C05DB1020DFF80E
:102100007C1981F8670680E618EB0600B9EB080138
:10211000FFF7EAFA0EE0DFF8640980F8494422008C
:102120002900DFF86469300002F0B0F821002800CF
:10213000FFF7DAFADFF8440990F87306DFF83C1984
:1021400091F8591488421AD2DFF83009B0F8AC017E
:1021500050F01000DFF82419A1F8AC01DFF81C09D9
:1021600090F8340402280AD1DFF81009B0F8AC0165
:102170004FF6FE710840DFF80419A1F8AC01DFF852
:10218000FC0890F8BB01012821D10298002801D059
:10219000802000E04020DFF8E41891F805130843A0
:1021A000DFF8D81881F80503029800281ED0002017
:1021B000DFF8C81881F804030020DFF8C01881F8A0
:1021C000BB010020DFF8B41881F8BC010EE000204C
:1021D000DFF8A81881F804030020DFF8A01881F8C0
:1021E000BB010020DFF8941881F8BC01BAF1000FA0
:1021F00013D5DFF8880890F8050350F02000DFF8C9
:102200007C1881F80503DFF8740880F80683002045
:10221000DFF8681881F8070313E0DFF8600890F82A
:10222000050350F01000DFF8541881F80503DFF8BB
:102230004C0880F80683B9EB0800DFF8401881F8F5
:102240000703012005B0BDE8F08F80B50220DFF85C
:10225000241C81F80503DFF81C0C90F8EA02FDF756
:1022600072FFDFF8101CC881DFF8080CD0F8EC0210
:10227000DFF8001C88600020DFF8F81B81F80703F6
:10228000DFF8F00B90F83404022813D1DFF8E40BE8
:1022900090F8AC01C0070DD5DFF8D80B90F8050316
:1022A00050F00800DFF8CC1B81F80503032004F090
:1022B000FDFC02E0022004F0F9FC01BDDFF8B42BC4
:1022C00012688218513ADFF8AC3B5A60C9B207294C
:1022D00004D13C20DFF89C1B08741BE0C9B2022922
:1022E00004DA0620DFF88C1B087413E0C9B2062953
:1022F0000CD1DFF8801B09684018A238DFF8741B86
:1023000048601020DFF86C1B087403E00820DFF839
:10231000641B0874704710B50C00DFF8601791F863
:10232000EA12FFF7CBFFDFF8540790F834040228D5
:102330000AD12200DFF844074068B0F14101DFF81C
:10234000380B04F002FA09E02200DFF83007406899
:10235000B0F14101DFF8240B04F0F7F910BD10B51E
:1023600004000120DFF80C1B81F80503DFF8040BE3
:1023700090F83604FDF7E7FEDFF8F81AC881DFF8B9
:10238000F40AD0F83804DFF8EC1A88600121DFF88D
:10239000E40AC089FDF7C5FEDFF8D81AC88100201D
:1023A000DFF8D01A81F80703DFF8C80AC0F8404404
:1023B000DFF8C00A90F8340402280AD1DFF8B40A22
:1023C000B0F8AC014FF6FE710840DFF8A81AA1F88A
:1023D000AC01022004F06AFC10BD38B504000D0009
:1023E000FEF7BEFEDFF89406417C2000FFF766FF93
:1023F0002A00DFF888064068B0F14101DFF87C0A66
:1024000004F0A3F931BD80B50820FEF7BDFF01F04F
:1024100021F901BD70B5DFF85C0A90F8AC01000647
:1024200001D4002028E1DFF84C0A90F807030028C7
:102430004BD1DFF8400A90F8AC01400726D4DFF812
:10244000340A90F8AC01800601D4002014E1DFF8D2
:10245000240AB0F8AC014FF65F710840DFF8141A97
:10246000A1F8AC01DFF80C0A90F8B2010A2808DAEA
:10247000DFF8000A90F8B201401CDFF8F81981F883
:10248000B2010920FEF780FF0120F5E0DFF8E40942
:10249000B0F8AC014FF67F710840DFF8D819A1F809
:1024A000AC01FEF7E5FE0400E00702D5DFF8D059E5
:1024B00001E0DFF8D05904F00AF92A002118DFF80A
:1024C000BC0904F042F90120D6E0DFF8A80990F831
:1024D0000853DFF8A00990F80743DFF89809E4B241
:1024E000201810F54170FDF756FEE4B2112C02D011
:1024F000E4B2212C04D1EDB215F0E300202808D07D
:10250000DFF8700990F80503C00701D50020B3E09B
:102510008FE7E4B2611EDFF87009FDF7FCFEE4B25C
:10252000211FDFF8A004FDF7DEFE0028E8D0DFF869
:102530005C09FDF730FEDFF83C19C1F8D402DFF882
:102540005009FDF728FE0002000ADFF82819C1F83B
:10255000A8010020FEF719F9DFF8180990F8130315
:1025600010F00F05DFF80C0990F81303C0F3021602
:102570002800C0B2FDF7F0FD00280DD03000C0B239
:10258000FEF79BFF002807D0DFF8E80880F83564E5
:10259000DFF8E00880F8EA52DFF8D80890F8140372
:1025A00010F00F00C0B2002800D10120401EDFF85B
:1025B000C41881F83C04E4B2122C21DB0D24DFF8AE
:1025C000B40890F8625613E0DFF8A808E4B22018C7
:1025D00010F54270FEF7C4FA002807D05FF0FF3311
:1025E000002201002800C0B2FEF730FA6D1CE41C86
:1025F000EDB2DFF8800890F86206401D8542E3DB0B
:10260000DFF88034DFF87824DFF87C18DFF864081E
:10261000B0F8B002401E80B2FDF7CAFEDFF85408E1
:1026200090F8AC012421084201D1002024E0DFF819
:10263000440890F8AC0180060DD5DFF8380890F812
:10264000B211DFF8300890F8B001FDF791FDDFF826
:10265000241881F8B001DFF81C08B0F8AC014FF67F
:1026600059510840DFF80C18A1F8AC01FEF793FEB1
:102670000620FEF789FE012070BD80B5DFF8FC035F
:1026800090F80703002807D10020DFF8F01381F845
:102690000503102003F0C4FDFFF7BCFE01BD80B5AB
:1026A000DFF8F007DFF8CC17C1F84004FFF7CDFDE5
:1026B00001BD80B5DFF8C40390F80703002803D0FC
:1026C000FFF7A8FE002805D1DFF8D41C5FF44030E6
:1026D000FFF721FE01BD80B5DFF8C80CFFF73FFE14
:1026E00001BD80B5052003F09BFDDFF8BC1C5FF445
:1026F0002030FFF772FE01BD80B5DFF87C0703F0E4
:10270000F8FF0020DFF87413C1F840040020DFF860
:102710006C1381F80703DFF8640390F86706FF285D
:1027200002D0102003F07CFD00F0B6FBD34890F8F7
:102730006806002802D0162003F072FDCF4890F8FA
:102740003404022807D1CD4890F8AC011821084282
:1027500001D100F071F901BD80B5C84890F80703B8
:1027600000281BD10020C54981F80503C34890F813
:10277000340402280BD1C14890F8AC01C00706D53B
:10278000FF20BE4981F8670600F056F905E0DFF842
:102790001C1CDFF8E80603F0C3FF6DE0B74890F8B3
:1027A000340402280BD1DFF8D00603F0A2FFB348AF
:1027B000B0F8AC0150F08000B049A1F8AC0100F0D5
:1027C0006BFB00281DD10020AC4981F80503AB4804
:1027D00090F8340402280DD1A84890F8AC01C00745
:1027E00005D4DFF8C81BDFF8900603F099FF00F06E
:1027F00023F905E0DFF8B41BDFF8800603F090FF53
:102800003AE09E4890F8340402280DD19B4890F895
:102810000503000708D5994890F8AC01C00703D517
:10282000DFF8580603F065FF944890F8050340066A
:1028300015D59248B0F8AC0150F080008F49A1F84E
:10284000AC01DFF8681BDFF8340603F069FF8B4842
:1028500090F8340402280FD100F0EEF80CE087481D
:1028600090F83404022807D1844890F8AC019021F4
:10287000084201D100F0E0F801BD80B57F48B0F812
:10288000AC014FF6FE7108407C49A1F8AC01DFF8BD
:10289000200B7A49C1F84004784890F834040228A3
:1028A00002D1002004F002FAFFF7CFFCDFF8FC2A87
:1028B00072480068714991F83C144FF4004303FBDF
:1028C000010010F5A021DFF8B40503F03EFF01BDC3
:1028D00080B5002004F0EAF9042004F0E7F9DFF8FD
:1028E000CC1ADFF8980503F01BFF01BD80B5DFF8B7
:1028F0008C0503F0FEFE0020604981F867065F4802
:1029000090F80703002803D000F0C6FA002813D17E
:10291000DFF8A01A594890F83C044FF400425043A5
:1029200010F58030FFF7F7FC544890F83404022883
:1029300001D100F081F820E0504890F805034006EE
:102940000ED54E48B0F8AC0150F080004B49A1F8CC
:10295000AC01DFF8581ADFF8240503F0E1FE0CE0C3
:10296000464890F83404022807D1444890F8AC0156
:102970009021084201D100F05FF801BD0000000085
:102980001000002080B53D4890F83404022802D1A0
:10299000002004F08BF9DFF8B00CFFF7E0FCDFF863
:1029A000AC2C36480068354991F83C144FF400438C
:1029B00003FB010010F5A021DFF8C00403F0C5FE01
:1029C00001BD00007803002080B5DFF8A804B0F84E
:1029D000AC0150F08000DFF89C14A1F8AC0100209D
:1029E000DFF8901481F849040020DFF8881481F89A
:1029F00005030020DFF87C1481F867060020DFF86B
:102A0000741481F868060A2003F00AFCDFF8401C01
:102A1000DFF8600490F83C044FF40042504310F596
:102A20000040FFF7DAFCDFF84C0490F83404022889
:102A300001D100F001F801BD80B5FDF7FEFC0028D2
:102A40001AD0DFF8300490F8EA02072814D00020EA
:102A500004F02CF9DFF81C04B0F8AC0150F00100D0
:102A6000DFF81014A1F8AC01DFF84409DFF8041412
:102A7000C1F84004FFF7E9FB01BD00007000002031
:102A80002203002032030020BA040020F0B583B0F6
:102A9000DFF8E00390F8AC0110F01800102801D026
:102AA000012600E00026F6B2002E04D0DFF8C403B1
:102AB00090F8BC5100E000250824DFF8B80390F836
:102AC0004804002817D00220DFF8A813DFF8A42359
:102AD00092F85924511881F85A04DFF8980390F8B5
:102AE0005904401CDFF88C1381F859040020DFF8EA
:102AF000841381F84804DFF87C0390F85904002817
:102B000057D0DFF8700390F8B001082807DADFF833
:102B1000500CDFF8601391F8B011085C00E0FF2062
:102B2000DFF8501391F85914884205DA0020DFF8D5
:102B3000441381F8590468E0DFF8380390F873060D
:102B4000DFF8301391F85914884215D3DFF82403C5
:102B500090F85924DFF88C1CC648201810F54277ED
:102B6000380001F093FBC34890F859040419002081
:102B7000C04981F8590448E00020BE4981F8BA01F3
:102B8000BC4890F85924DFF85C1CDFF85C5C280036
:102B900001F07CFBB74890F85904B64981F8BC01B4
:102BA000B44890F8BC510020B24981F8590401267C
:102BB0002BE0B04890F85905002826D0AD4890F891
:102BC0005905102821DAAB4890F8B001082806DA38
:102BD000DFF88C0BA74991F8B011085C00E0FF20EA
:102BE000A44991F8591588420FDBA24890F859255D
:102BF000DFF8941C9F48201810F54277380001F048
:102C000045FB9C4890F8590504199A4890F8E2024F
:102C100000280CD0974890F9E102002803D5002045
:102C2000944981F8E1020020924981F8E202F6B26B
:102C3000002E02D0EDB2681D00E004200719BFB2DB
:102C4000FF2F01DD0026271D40208A4981F8080357
:102C5000884890F9E102002801D4402000E00020DB
:102C6000844991F8E012834A92F8E622114308431E
:102C70002100083908437F4981F80D037D48D0F8C9
:102C8000D4128148FDF7A2FA7A4890F8040300288C
:102C900006D17848D0F8DC02401C7649C1F8DC0245
:102CA0007448D0F8DC02411E89B2DFF8400CFDF711
:102CB00088FA704890F8E002002812D06D4890F829
:102CC000AE0100280DD06B4890F80403694991F8D3
:102CD000AE11491E884208D10020664981F8E00201
:102CE00003E00020634981F8E002F6B2002E3ED0F6
:102CF000604890F8BB0100280CD080205D4981F825
:102D000008035C4890F80403002803D101205949C6
:102D100081F80403574890F8BA015649611881F8C0
:102D20000803EDB2DFF8C01A5248201800F2093645
:102D30002A00300001F0AAFA4E4890F8BA010028A3
:102D400002D1DFF8280C01E0DFF8240CEDB2019588
:102D50004849611801F20931009100234549D1F831
:102D6000DC124A1E4349D1F8D412FDF7E2FABFB291
:102D7000381F0190DFF8740C009000233D48D0F814
:102D8000DC02421E3B48D0F8D412DFF8E00BFDF71E
:102D90007CFA384880F80773F7BD10B5DFF84C4C63
:102DA0002070601C03F0A7F814F1090003F0ADF8DF
:102DB0003048B0F8B01214F11100FDF702FA1321F7
:102DC0002000FDF77EFA17202A4981F807032948D9
:102DD000B0F8B002401C2749A1F8B00210BD80B580
:102DE00000F0EAFA01BD80B5FDF727FB00283FD1CE
:102DF000204890F8AC019021084201D0002038E032
:102E000000201C4981F8A30100201A4981F83504EB
:102E10000020184981F83C040020164981F8680612
:102E20000020144981F867061248B0F8AC014EF250
:102E3000DE7108400F49A1F8AC0100200D4981F86E
:102E4000BB010C4981F804030A4981F8B201FEF77D
:102E5000E2F90848B0F8AC0150F004000549A1F8C7
:102E6000AC01DFF8601C054803F05AFC012000E0CB
:102E7000002002BD7000002098040020880000207F
:102E80000724000881130008790300207F03002035
:102E90007C0300207B26000880B5DFF81C0D90F82D
:102EA000AC01000655D5DFF8100D90F80703002897
:102EB00005D0DFF8040D90F80503400649D5DFF88A
:102EC000F80C90F8BB01002843D1DFF8EC0C90F827
:102ED0000403DFF8E41C91F8AE11491E884238DA89
:102EE0000020DFF8D41CC1F84004DFF8CC0C90F8C7
:102EF0000403401CDFF8C01C81F804030220FDF726
:102F0000B3FBDFF8B41C91F83C144FF4004202FB11
:102F1000010010F5C031DFF8A00C0068FDF7C8FB18
:102F2000DFF8940CB0F8AC014FF67E710840DFF882
:102F3000881CA1F8AC01DFF8800CB0F8AC0150F0AF
:102F40000800DFF8741CA1F8AC0100F035FA01208C
:102F500002BDDFF8640C90F8AC0110F0810001288C
:102F600006D1FF20DFF8501C81F867060020EFE74C
:102F7000DFF8440C90F80703002806D0DFF8380C7F
:102F800090F80503400640F1E181DFF82C0C90F841
:102F90000403002800F0A680DFF81C0C90F8BB01A9
:102FA000012840F09F80DFF8100C90F80403DFF850
:102FB000081C91F86016884273D20020DFF8F81BD5
:102FC000C1F84004DFF8F00B90F80403401CDFF870
:102FD000E81B81F80403DFF8E00B90F804030221FA
:102FE00090FBF1F202FB1102012A1BD1DFF8C80BA2
:102FF00090F80403022815DBDFF8BC0B90F8B00151
:10300000FDF725FA00280DD10121DFF8AC0B90F86F
:10301000B001FDF7ADF87FF07F020100C9B20220D8
:10302000FDF78AFB00F0E8FDDFF88C1B91F8BC117E
:10303000C0B288420AD20020DFF87C1B81F8BB01B5
:103040000420DFF8741B81F8680634E00220FDF7E5
:103050000BFBDFF8641B91F83C144FF4004202FBB9
:10306000010010F5C031DFF8500B0068FDF720FBC0
:10307000DFF8440BB0F8AC014FF67E710840DFF882
:10308000381BA1F8AC01DFF8300BB0F8AC0150F000
:103090000800DFF8241BA1F8AC0100F08DF9012035
:1030A00056E70020DFF8101B81F8BB010220DFF893
:1030B000081B81F868066020DFF8FC1A81F8050318
:1030C000DFF8F40A90F83404022840F0A680DFF814
:1030D000E80AB0F8AC0150F00100DFF8DC1AA1F802
:1030E000AC019AE0DFF8D00A90F84404102840F0D0
:1030F0007F800120DFF8C01A91F8AE11002904D0BA
:10310000DFF8B41A91F8AE114843DFF8AC1A91F821
:103110004514C0B281424BD2DFF89C0A90F80403F8
:10312000002811D0DFF8900A90F84504DFF8881ADB
:1031300091F804130818DFF8801A81F8450400207C
:10314000DFF8741A81F80403DFF86C0A90F845047C
:10315000401CDFF8641A81F845040220FDF784FA68
:10316000DFF8541A91F83C144FF4004202FB0100BE
:1031700010F5C031DFF8400A0068FDF799FADFF872
:10318000380AB0F8AC014FF67E710840DFF8281A13
:10319000A1F8AC01DFF8200AB0F8AC0150F0100043
:1031A000DFF8141AA1F8AC0100F006F90120CFE60F
:1031B0000020DFF8041A81F844040020DFF8F81931
:1031C00081F845042020DFF8F01981F80503DFF8C5
:1031D000E80990F8340402281FD1DFF8DC09B0F8C0
:1031E000AC0150F00100DFF8D019A1F8AC0114E0F7
:1031F0002020DFF8C41981F80503DFF8BC0990F836
:103200003404022809D1DFF8B009B0F8AC0150F05D
:103210000100DFF8A419A1F8AC01DFF89C0990F9CE
:10322000E10210F1800F08D0DFF88C0990F8E1027C
:10323000401CDFF8841981F8E102DFF87C0990F87E
:10324000B001FDF704F9002805D07FF07F00DFF81A
:10325000681981F8E102DFF8600990F9E1020028BD
:103260000AD1DFF85409B0F8AC01C00404D400203E
:10327000DFF8441981F8E1020020DFF83C1981F8F9
:1032800059040020DFF8301981F80703DFF8280916
:1032900090F80703DFF8201981F80603DFF8180912
:1032A000B0F8AC014FF677710840DFF80C19A1F8BF
:1032B000AC01DFF8040990F805030721084210D09B
:1032C000DFF8F408B0F8AC01C0040AD5DFF8E8086C
:1032D000B0F8AC014EF6FF710840DFF8DC18A1F839
:1032E000AC0100F069F8DFF8D00890F9E10220287D
:1032F0002ADBDFF8C40890F8B001FDF719F97FF078
:103300007F020100C9B20320FDF716FADFF8A80812
:1033100090F8B001FDF79BF8002805D10020DFF8F8
:10332000981881F8E10205E07FF07F00DFF8881847
:1033300081F8E102DFF88008B0F8AC0150F4805069
:10334000DFF87418A1F8AC01012001E6FEF73CFD9E
:10335000002801D10020FBE50020DFF85C18C1F84F
:1033600040040A2002F05CFF98E780B5DFF84808C7
:10337000B0F8AC014FF677710840DFF83C18A1F8BF
:10338000AC01DFF8940B03F0B4F9DFF8080C03F09C
:10339000B0F9002003F08AFC112002F041FF01BDCA
:1033A0009F260008B3260008D7260008F926000843
:1033B000592700087B280008F8B5DFF8FC0790F8CB
:1033C000AC01C121084240F0178103F080F90400EC
:1033D000002000250020DFF8E017C1F86C06DFF8B8
:1033E000D80790F8AC013C21084200F00A81DFF8D0
:1033F000C80790F8AC012421084201D0012600E062
:103400000026DFF8B407B0F8AC01000527D500218D
:103410002000FDF73DFD0500DFF89C070560281B37
:10342000DFF8741B88420ED1DFF88C07B0F8AC01CE
:103430004FF6E7710840DFF88017A1F8AC011220C1
:1034400002F0EEFED8E0DFF87007B0F8AC014FF202
:10345000FF710840DFF86017A1F8AC0102E0DFF867
:1034600058070568DFF8500790F8A301002805D138
:10347000DFF84407B0F8AC01C0050AD5DFF838071B
:10348000D0F8A401281A002803D5DFF82C07D0F8BB
:10349000A451DFF82407DFF8201791F8A21110EBF0
:1034A000810090F8000110F00700291B4139002924
:1034B0000AD4DFF80417C0B2242202FB001090F8EF
:1034C0003000002800F087802500DFF8EC0690F837
:1034D000B071F6B2002E1BD0DFF8DC0690F8AC011C
:1034E00080060AD5DFF8D00690F8B2113800C0B2D5
:1034F000FCF73EFE0700C02000E00020C0B2FFF74E
:103500004CFCDFF8980ADFF8B016C1F8400407E079
:10351000FFF7BCFADFF8880ADFF89C16C1F8400410
:103520003800C0B2FCF708FEDFF88C1691F8B11134
:1035300080B2FCF7EAFDDFF88016C881DFF8780674
:103540004774DFF87406B0F8AC014FF6EF6108403D
:1035500050F40860DFF86016A1F8AC012800FDF710
:103560002FFCDFF8540690F83404022802D1002022
:1035700003F09CFBF6B2002E08D0DFF8302B14F5D8
:10358000A021DFF8940903F0E0F807E0DFF81C2B36
:1035900014F58021DFF8800903F0D7F8DFF818066A
:1035A000D0F85C06002804D0DFF80C06D0F85C06E2
:1035B0008047012003F07AFBDFF8FC0590F8071341
:1035C000DFF8F405C089FCF7D4FF00195530DFF8A7
:1035D000E815086010E0DFF8E00590F8AC0180071E
:1035E0000BD4132002F01CFEDFF81C2BB5F14101B7
:1035F000DFF8240903F0A9F8F1BD002DF4D16D1C0A
:10360000F2E7DFF8B40590F8AC018007ECD4F3E7FB
:10361000C0B2002805D08020DFF8681B81F8E602E0
:1036200004E00020DFF85C1B81F8E602704780B5FB
:10363000DFF8502B82F847040A0052B20100C9B2E9
:103640000020FDF779F801BDED280008D128000819
:103650008529000810B5002003F028FBDFF8B80822
:1036600003F047F8DFF82C0903F043F80020DFF8F7
:10367000481581F859060020DFF83C1581F804034D
:103680000020DFF8341581F8BB010020DFF8281591
:10369000C1F8D40202F0A1FF0400E4B202F09DFFE1
:1036A00050EA0420DFF81015A1F8B0020020DFF87E
:1036B0000815A1F8AC010020DFF8FC1481F8B10175
:1036C000DFF8C40ADFF8F014C1F800030320DFF8C4
:1036D000E81481F8F402FF20DFF8DC1481F8F50229
:1036E0000020DFF8D41481F859040020DFF8C81452
:1036F00081F859050020FDF748F810BD80B540203D
:10370000DFF8B414A1F8AC010120DFF8AC1481F8A3
:1037100061060020DFF8A014A1F864060020DFF89D
:10372000981481F866068020DFF88C1481F8E60290
:103730000020DFF8841481F84504002009E000210E
:10374000DFF87424C0B2242303FB002282F8271080
:10375000401CC0B20628F2DB00F0DFFA01BD000019
:10376000E819010880B50020DFF8181A81F868060A
:103770000020DFF8101A81F86706DFF8080A90F8D1
:10378000340402280AD1DFF8FC09B0F8AC014FF686
:103790007E710840DFF8EC19A1F8AC01DFF8E4090C
:1037A000B0F8AC014FF67F710840DFF8D819A1F8E6
:1037B000AC01DFF8D009B0F8AC0150F00800DFF838
:1037C000C419A1F8AC01DFF8BC0990F8AC014007BE
:1037D00004D40020DFF8AC1981F80403FFF7ECFDF6
:1037E00001BD0000CA0400202D0200202DE9F04197
:1037F00004000D0016001F00FCF71FFE002802D178
:103800007FF0020032E0DFF8B00390F8B001072843
:1038100007DA00F0F1F9F6B2B0420ED27FF0010003
:1038200024E0DFF8940390F85904D0F1F200F6B2E6
:10383000B04202DA7FF0010018E0002D07D0F6B2A6
:10384000DFF8488932002900404600F01FFDDFF80C
:10385000680380F8BB71DFF8600380F8BA41DFF8D5
:10386000580380F8BC61FFF77DFF0020BDE8F081C0
:1038700080B5FCF7E2FD002805D0002300220021DE
:103880000120FFF7B3FF01BDCA05002070B5140089
:103890001D00C94AC2F8A801C748C0F8D412002CBC
:1038A00005D01022314E2100300000F0EFFC002D39
:1038B00005D010222E4C2900200000F0E7FC00204B
:1038C000FCF763FFBC48B0F8AC014FF65951084013
:1038D000B949A1F8AC01B848B0F8AC0150F40060A7
:1038E000B549A1F8AC01FDF756FD70BD7E0300207F
:1038F00080B5DFF8901891F83414C0B2814223D01B
:10390000DFF8801881F83404C0B201280ED1DFF846
:103910007408B0F8AC014FF67E710840DFF8641807
:10392000A1F8AC01002003F0C1F90DE0C0B20228FB
:103930000AD1FCF782FD002806D002F0C8FEC01CA8
:1039400003F069FAFFF778F801BDDFF8380890F85E
:10395000340470470120DFF82C1881F848047047C0
:10396000DFF82018A1F86406704700002203002049
:103970003203002080B5DFF80C0890F8610610F0E3
:103980007F00C0B2C01E03D0C01F092804D907E0C1
:103990001E2000F0FBF806E0102000F0F7F802E02F
:1039A000102000F0F3F800200DE0DFF8D81791F8B0
:1039B0002710002906D1DFF8CC17C97CDFF8C4270F
:1039C00082F82610401CDFF8BC1791F8FC108842E2
:1039D000EBDB01BD80B5DFF8AC1781F8660640B2BD
:1039E00003F03AF9FFF7C6FF01BD0000780300209D
:1039F00010B502F06CFE040001212000FDF748FA2A
:103A0000011BDFF89425914202D17FF0010025E0EF
:103A1000DFF87017DFF86C2792F8A22111EB820112
:103A200091F8001111F00701021B413A002A09D454
:103A3000DFF85027C9B2242303FB012191F830108D
:103A4000002901D0002009E0001B4FF47A7181FBAE
:103A500000014FF40042002302F000FF10BDDFF828
:103A6000241791F86116C0B2814205D1DFF814071E
:103A700090F91300C0B224E0C0B210F07F00C0B2D1
:103A8000401E07D0401E09D0401E05D0C01F092887
:103A900006D907E0102006E01E2004E01E2002E008
:103AA000102000E01020DFF8DC1691F966161631C0
:103AB000C0B2814204DADFF8CC0690F9660616300F
:103AC000C0B27047DF2D000838B50400002500E0C3
:103AD0006D1CEDB2102D21DA3748B0F8A00101219C
:103AE000A9400842F4D02900C9B22000C0B2FCF7B6
:103AF000CCFC0128ECD1304890F87106002804D0A5
:103B0000E4B2022C01DA002009E0DFF88406E4B216
:103B100020184078FF28DBD0012000E0002032BDD3
:103B200030B59BB004000D0000AA00212000C0B2F7
:103B300000F038FA002000E0401C9DF80010C0B2F0
:103B4000884215D200A9C0B211EB4001B1F844106F
:103B50000122AA401142EFD0E4B2B4F10A000A28CF
:103B600004D2EDB2022D01DA002002E0012000E0D3
:103B700000201BB030BDDFF80C16C1F85C067047A2
:103B8000401CDFF8001681F860067047DFF8F41576
:103B900091F96616163140B2814208DADFF8E40581
:103BA00090F866061630DFF8DC15C87402E0DFF81E
:103BB000D415C8747047000070000020DFF8C405F9
:103BC00090F8B001082815DADFF8B80590F871060A
:103BD000002807D0DFF8BC05DFF8A81591F8B01170
:103BE000085C08E0DFF8B005DFF8981591F8B0112F
:103BF000085C00E00020704780B5FFF7DFFFC0B22F
:103C0000002806D0DFF87C1591F85914401AC0B28C
:103C100000E0002002BD30B4DFF8683593F861366B
:103C200013F07F03012B35D1C0B2062830DADFF85C
:103C3000543593F913301400E4B21BB224B2A342FA
:103C400026DBC9B2002901D0012300E00023DFF800
:103C50003445C0B2242505FB004484F82730C9B29E
:103C6000002908D0DFF81C15C0B2242303FB001084
:103C700080F826200AE0DFF80C15C97CDFF804255F
:103C8000C0B2242303FB002080F82610012002E0AC
:103C9000002000E0002030BC7047DFF8E80490F816
:103CA000610610F07F00012801D1062000E000200D
:103CB000704710B4DFF8CC3493F8613613F07F030B
:103CC000012B27D1C0B2062822DADFF8B834C0B2FF
:103CD000242404FB003393F827300B70DFF8A4147E
:103CE000C0B2242303FB001191F82710002904D14E
:103CF000DFF89004C07C107008E0DFF88814C0B2D0
:103D0000242303FB001090F826001070012002E02D
:103D1000002000E0002010BC704738B502F0D7FC4E
:103D20000400DFF8600490F8610610F07F00C0B274
:103D3000C01E03D0C01F092844D982E01E20FFF70F
:103D400025FF0120DFF83C1481F8FC00DFF8340483
:103D5000C07CDFF8301481F82800DFF8280490F8E0
:103D60002700002806D1DFF81C04C07CDFF81414FB
:103D700081F8260002F031FC102190FBF1F202FBE9
:103D80001102DFF8000480F82920DFF8F803C4628C
:103D90000020DFF8F01381F84400FCF794FD0020C8
:103DA000DFF8E01381F840000A20DFF8D813087527
:103DB0000720DFF8D01348750520DFF8C81381F815
:103DC00070069BE01020FFF7E1FE0120DFF8B4133E
:103DD00081F8FC00DFF8AC03C07CDFF8A81381F8A1
:103DE0002800DFF8A00390F82700002806D1DFF8AC
:103DF0009403C07CDFF88C1381F8260002F0EDFB01
:103E0000102190FBF1F202FB1102DFF8780380F839
:103E10002920DFF87003C4620020DFF8681381F8FE
:103E20004400FCF750FD0720DFF858130875072001
:103E3000DFF8501348750520DFF8481381F8700645
:103E40005CE01020FFF7A2FE0620DFF8381381F8AF
:103E5000FC00002540E0DFF82C03C07CDFF82413D1
:103E6000EDB2242202FB051181F82800C548EDB20D
:103E7000242101FB050090F82700002808D1C14843
:103E8000C07CC049EDB2242202FB051181F8260056
:103E900002F0A3FB102190FBF1F202FB1102B948E2
:103EA000EDB2242101FB050080F82920B548EDB2D0
:103EB000242101FB0500C4620020B249EDB2242296
:103EC00002FB051181F84400AE48EDB2242101FB4C
:103ED000050080F840506D1CAA4890F8FC00EDB237
:103EE0008542B8D3FCF7EFFC0720A64908750520EA
:103EF000A44948750720A34981F8700631BD80B5F3
:103F0000A04991F86116C0B2884204D09D4981F859
:103F10006106FFF79FFB01BD88000020994991F8D9
:103F2000611611F07F01C9B2C91E03D0C91F09294A
:103F300002D903E000202CE000202AE09749411A32
:103F4000974A914201D2002023E09649411A964AAD
:103F5000914201D201201CE09449411A944A9142B5
:103F600001D2022015E09349411A934A914201D2AD
:103F700003200EE09149411A914A914201D2042056
:103F800007E09049401A9049884201D2052000E09C
:103F9000002070479804002000005046E3260008E7
:103FA000C929000810B4C0B210F07F01C9B2491E7F
:103FB00005D0891E24D0C91F092942D95AE00321FE
:103FC000117082495160824991608249D16000211B
:103FD00006E03F23C9B212EB4104A4F84430491C67
:103FE0001378C9B29942F4D3000603D4002082F8B2
:103FF000640002E0032082F864006348906653E0A6
:104000000321117074495160744991607449D16001
:10401000002106E03F23C9B212EB4104A4F844306A
:10402000491C1378C9B29942F4D3000603D4022084
:1040300082F8640002E0042082F864006948906617
:1040400032E002201070684850606848906000209C
:1040500006E03F21C0B212EB4003A3F84410401C1D
:104060001178C0B28842F4D3022082F864005E481E
:10407000906619E0032010705448506054489060D6
:104080005448D060002006E03F21C0B212EB40034C
:10409000A3F84410401C1178C0B28842F4D3002029
:1040A00082F864003848906610BC70476B33000893
:1040B000C0B2102800DB0F20324981F87306704728
:1040C000C0B2032804DA2F4981F87406012000E009
:1040D0000020704710B51400C0B200280FD00800AF
:1040E000FCF73EFD002808D02649886025488474E6
:1040F000052002F0DBFD012005E0002003E00020A8
:1041000002F0D4FD012010BD8113000880B500200D
:1041100002F0CCFD042002F0C9FD3549354802F01B
:10412000FFFA01BD80B5C0B2002826D000200021D2
:1041300011E0144AC9B2242303FB012292F8302073
:10414000002A07D00F4AC9B2242303FB012292F8A8
:1041500044201018491CC9B20629EADBC0B2012864
:1041600009D102F0B4FA0021FCF792FE052002F01A
:104170009DFD012005E0002003E0002002F096FDF7
:10418000012002BD7000002008E6D3332D0200207C
:10419000A8190108F0190108E8190108C055703381
:1041A00081841E0040DA8E33C1C62D0000A1BC33CD
:1041B000C1270900604FC73321A10700C0FDD133DB
:1041C00091D00300A091D633E1930400A027BE3321
:1041D000E034C1332042C43364CE8F3384FE943341
:1041E000E8E19D33F080A63300EA063740F709374F
:1041F000F92600088800002062F30F2262F31F42B4
:10420000401810F0030308D0C91A1FD3DB0748BFBA
:1042100000F8012D28BF20F8022D130030B41446F9
:104220001546103928BF20E93C00FAD8490728BFB5
:1042300020E90C0048BF40F8042D890028BF20F871
:10424000022D48BF00F8012D30BC7047C91818BFB7
:1042500000F8012DCB0728BF00F8012D704710B4DE
:1042600050F8041B81B102681218001D50F8043B7D
:10427000DC0744BFA9F10104E31852F8044B43F8EA
:10428000044B091FF9D1EBE710BC704762B38B07F1
:1042900008D0521E11F8013B00F8013B00F02480C9
:1042A0008B07F6D1830740F0208000BF103A07D378
:1042B00030B4B1E83810103AA0E83810F9D230BC68
:1042C000530724BFB1E80810A0E8081044BF51F814
:1042D000043B40F8043BD20724BF31F8022B20F8FE
:1042E000022B44BF0B7803707047083A07D3B1E83C
:1042F0000810083A40F8043B40F804CBF7D25307C3
:10430000E4E750F8041B61B150F8042BD30744BF15
:10431000A9F101039A180023091F42F8043BFAD1BE
:10432000EFE7704710B400201FE0DFF8041851F8E1
:104330002010DFF8FC2752F8202012F47F421202EE
:1043400052EA0161DFF8E82752F82020120A12F43D
:104350007F421143DFF8D82752F8202051EA12613A
:10436000DFF8CC2742F82010401C0428DDDBDFF802
:10437000C017C96834E0042290FBF2F303FB120378
:10438000002B21D1DFF8AC270B0CDBB29A5CDFF8F5
:10439000A4370C0AE4B2E35C1B0493EA0262DFF880
:1043A00094370C00E4B2E35C92EA0322DFF884372E
:1043B000090EC95C5140021F042392FBF3F2DFF89F
:1043C000783753F822205140DFF8642712EB80023F
:1043D00052F8102C5140DFF8582742F82010401CAA
:1043E0002C28C8DB10BC70472DE9F84F06000C00E4
:1043F0001500FFF797FF30070DD50020DFF83C17B9
:10440000C860DFF838178860DFF830174860DFF8D9
:104410002C1708608CE0DFF824070068DFF81C1711
:10442000096811F47F41090251EA0060DFF80C17B6
:104430000968090A11F47F410843DFF80017096889
:1044400050EA1160DFF8F4160860DFF8F006406803
:10445000DFF8E816496811F47F41090251EA00606B
:10446000DFF8D8164968090A11F47F410843DFF8DC
:10447000CC16496850EA1160DFF8C0164860DFF8D2
:10448000BC068068DFF8B416896811F47F41090220
:1044900051EA0060DFF8A4168968090A11F47F4127
:1044A0000843DFF89816896850EA1160DFF88C1627
:1044B0008860DFF88806C068DFF88016C96811F4E4
:1044C0007F41090251EA0060DFF87016C968090AE5
:1044D00011F47F410843DFF86416C96850EA11609F
:1044E000DFF85816C86023E01F0E27701F0C677096
:1044F0001F0AA770E370130E2371130C6371130A64
:10450000A371E2710A0E22720A0C62720A0AA27286
:10451000E172010E2173010C6173010AA173E07352
:1045200016F00A00022801D01034103D56F008069B
:104530002DB2012DC0F2F8825FEA467C04D416F059
:104540000A0CBCF1020F0CD1DFF8F0050368DFF8AC
:10455000EC054268DFF8E4058168DFF8E005C06833
:1045600044E05FEA867C40F1AC82ADB2112D80F26E
:10457000A8820023180019001A00ADB2102D01D135
:10458000012700E0022756EA07162FE05FF0000E31
:104590005EEA07271CF0030EBEF1030F03D11300E0
:1045A0000A00010038001CF1010CBCF1100F0BD205
:1045B000ADB2AC4502D21CF804E0E9E7ADB2AC45BF
:1045C000E4D15FF0800EE3E7B7070FD5DFF86C7535
:1045D0003F687B40DFF864757F687A40DFF85C7580
:1045E000BF687940DFF85475FF687840DFF840E530
:1045F0001EF180070097DEF800707B40DEF8047043
:104600007A40DEF808707940DEF80C707840DEF809
:104610001470DEF81880DEF81C90DEF810C0DFF8A9
:1046200020A59B465FFA8BFB5AF82BA09AEA070756
:10463000DFF810A55FEA132B5FFA8BFB5AF82BA06B
:104640009AEA0808DFF800A55FEA134B5FFA8BFBD4
:104650005AF82BA09AEA0909DFF8F0A41B0E5AF8C1
:10466000233093EA0C0CDFF8D83492465FFA8AFACA
:1046700053F82A3093EA0808DFF8C8345FEA122AB0
:104680005FFA8AFA53F82A3093EA0909DFF8B83456
:104690005FEA124A5FFA8AFA53F82A3093EA0C0C5E
:1046A000DFF8A834120E53F822205740DFF8902488
:1046B0000B00DBB252F8232092EA0909DFF88424C8
:1046C0000B0ADBB252F8232092EA0C0CDFF87824B4
:1046D0000B0CDBB252F823205740DFF87024090E90
:1046E00052F8211091EA0808DFF854140200D2B2FF
:1046F00051F8221091EA0C0CDFF84814020AD2B2E9
:1047000051F822104F40DFF84014020CD2B251F899
:10471000221091EA0808DFF83414000E51F8200046
:1047200090EA0909DEF82420DEF82810DEF82C00D3
:10473000DEF82030DFF808A4E3465FFA8BFB5AF876
:104740002BA09AEA0202DFF8FCA35FEA1C2B5FFAB7
:104750008BFB5AF82BA09AEA0101DFF8ECA35FEA81
:104760001C4B5FFA8BFB5AF82BA09AEA0000DFF88B
:10477000DCA35FEA1C6C5AF82CC09CEA0303DFF848
:10478000C0C3BA465FFA8AFA5CF82AC09CEA010103
:10479000DFF8B0C35FEA172A5FFA8AFA5CF82AC02A
:1047A0009CEA0000DFF8A0C35FEA174A5FFA8AFAC2
:1047B0005CF82AC09CEA0303DFF890C33F0E5CF864
:1047C00027707A40DE4FC4465FFA8CFC57F82C7095
:1047D0007840DC4F5FEA182C5FFA8CFC57F82C709D
:1047E0007B40D94F5FEA184C5FFA8CFC57F82C706D
:1047F0007A40D64F5FEA186C57F82C707940D04F4A
:10480000CC465FFA8CFC57F82C707B40CD4F5FEAAA
:10481000192C5FFA8CFC57F82C707A40CA4F5FEA6B
:10482000194C5FFA8CFC57F82C707940C74F5FEA3F
:10483000196C57F82C7078401EF1200E009FBE4571
:10484000FFF4E5AEDEF81470DEF81880DEF81C9098
:10485000DEF810C0DFF8E8A29B465FFA8BFB5AF83F
:104860002BA09AEA0707DFF8DCA25FEA132B5FFAB6
:104870008BFB5AF82BA09AEA0808DFF8CCA25FEA73
:10488000134B5FFA8BFB5AF82BA09AEA0909DFF861
:10489000BCA21B0E5AF8233093EA0C0CA84B92468C
:1048A0005FFA8AFA53F82A3093EA0808A54B5FEAC0
:1048B000122A5FFA8AFA53F82A3093EA0909A24BBE
:1048C0005FEA124A5FFA8AFA53F82A3093EA0C0C2C
:1048D0009E4B120E53F822205740994A0B00DBB230
:1048E00052F8232092EA0909964A0B0ADBB252F8E1
:1048F000232092EA0C0C944A0B0CDBB252F82320D2
:104900005740924A090E52F8211091EA08088C4942
:104910000200D2B251F8221091EA0C0C8949020A25
:10492000D2B251F822104F408749020CD2B251F84E
:10493000221091EA08088549000E51F8200090EAFB
:104940000909DEF820307B485FEA1C61085C93EAC5
:1049500000637848390CC9B2085C93EA0043754893
:104960005FEA1821C9B2085C93EA002371484946FE
:10497000C9B2085C4340DEF824206E48390E085C5A
:1049800092EA00626B485FEA1841C9B2085C92EA99
:10499000004268485FEA1921C9B2085C92EA002225
:1049A00064486146C9B2085C4240DEF8281061489C
:1049B0005FEA186A1AF8000091EA00615D485FEA50
:1049C000194A5FFA8AFA1AF8000091EA0041594838
:1049D0005FEA1C2A5FFA8AFA1AF8000091EA0021BD
:1049E0005448BA465FFA8AFA1AF800004140DEF8E5
:1049F0002C00DFF840E15FEA196919F80EE090EA4F
:104A00000E60DFF830E15FEA1C4C5FFA8CFC1CF8AA
:104A10000EC090EA0C40DFF81CC13F0AFFB217F845
:104A20000C7090EA0720434F5FFA88F818F8077077
:104A30007840B70751D5C6F30117FFB2002F43D016
:104A40005FEAD37C5FEAD27E5EEA43035FEAD17E0F
:104A50005EEA42025FEAD07E5EEA41014000BCF1BC
:104A6000000F01D090F087007F1E002FE8D1DFF803
:104A7000CCC0DCF800C093EA0C0CDFF8C0E0CEF844
:104A800000C0DFF8B8C0DCF804C092EA0C0CDFF814
:104A9000ACE0CEF804C0DFF8A4C0DCF808C091EAAE
:104AA0000C0CDFF898E0CEF808C0DFF890C0DCF816
:104AB0000CC090EA0C0CDFF884E0CEF80CC016F0C5
:104AC000CF065FF0000C70E51C4F3B601B4B5A603B
:104AD0001A4A91601949C86022E577077FF504AD4D
:104AE000ADB2112D02DB5FF0100C01E0ADB2AC46AF
:104AF000002711E017F804E05FEA136898EA0E0E49
:104B000007F804E01B0217F0030EBEF1030F02D1F9
:104B100013000A0001007F1C6745EBD30748C068FB
:104B2000401C0649C860FBE404480068BDE8F28FF9
:104B30004C110020AC140108A41801083C160020F8
:104B4000640501086401010864FD000864F90008B7
:104B50000020DFF8C01B81F83C001020DFF8B41BF8
:104B600081F83D00C320DFF8AC1B81F83E00002037
:104B7000DFF8A01B81F83F000720DFF8981B81F8C1
:104B800049000120DFF88C1B81F84A000020DFF883
:104B9000841BC8640F20DFF87C1B81F853000020C1
:104BA000DFF8701B81F854000020DFF8681B81F8E3
:104BB0004800704710B500241AE00020DFF8881C78
:104BC00011EB840181F81901DFF87C0C90F84A00A0
:104BD000FEF745FFDFF8701C11EB840181F81A0124
:104BE0000020DFF8641C11EB840181F81B01641CB8
:104BF0000F2CE2DB10BD30B585B004000D00CD20D8
:104C00008DF80C0028208DF80D000C2100A802F072
:104C10005CFB36208DF80E00B5208DF80F000020CB
:104C200005E0015D00AA825C51400155401CA8428C
:104C3000F7DB05B030BD80B51021DFF8100CFFF7B1
:104C4000DAFF1021DFF8080CFFF7D5FF0821DFF8A5
:104C5000C40AFFF7D0FF1021DFF8880CFFF7CBFF65
:104C600001BD10B50024FFF7E6FF0420DFF8D81BD4
:104C700081F850005823DFF8D02B0121022002F0E8
:104C80008EFB002800D1012402F057FD00280BD034
:104C90005823DFF8B42B0221022002F080FB002809
:104CA00001D1012400E00024FFF7C5FF2000C0B2BD
:104CB00010BD10B55823DFF8902B0100C9B20220B7
:104CC00002F05CFB0400DFF8800B90F85000002835
:104CD00001D0FFF7B0FFDFF8700B90F85000032809
:104CE00004DA0F20DFF8601B81F85300DFF8580B5F
:104CF00090F85000042804DA0020DFF84C1B81F8FB
:104D00005400E4B2002C03D0FFF722FF00200DE096
:104D1000DFF8340B90F84A00002806D1DFF8FC0BCE
:104D20000078DFF8241B81F84A00012010BD10B57F
:104D300000240120DFF8DC1981F818013D23DFF899
:104D4000E02B0321022002F02AFB002800D10124DD
:104D50002000C0B210BD80B53D23DFF8C42B010098
:104D6000C9B2022002F00AFBC0B2002803D0FFF74C
:104D700021FF002000E0012002BD80B5DFF8C81A45
:104D800081F83F00DFF8C01A91F8B01004290FD065
:104D9000C0B2002803D1802002F0A3FD08E0DFF8B4
:104DA000A80A90F8B000002802D1802002F0A6FDE9
:104DB00001BDDFF8940A90F83F00002801D00120DF
:104DC00000E00020C0B2704780B5FFF7F2FF002876
:104DD00002D0802002F092FD01BDC0B200280ED0AA
:104DE000C9B2002905D00220DFF85C1A81F848001A
:104DF00013E00120DFF8501A81F848000DE0C9B235
:104E0000002905D00320DFF8401A81F8480004E0AB
:104E10000020DFF8341A81F84800704780B5C9B225
:104E2000C0B2FFF7DAFFFFF71CFF01BD10B50400A9
:104E3000DFF8E00890F84800802802D100202070B8
:104E400018E0DFF8D00890F848002070207801289A
:104E500002D0207802280DD100F07DFA6060DFF8E2
:104E6000F80C90F8B0012072FBF78AFC6072FEF734
:104E7000C3FEA07210BDDFF8D00990F84800C0B2A0
:104E8000002802D0C0B2032801D1002000E0012098
:104E9000704710B50400DFF8B00980F83E4014F008
:104EA0000100FEF7B5FB14F00400C0B28008C0B2E8
:104EB000002803D00220FEF71BFD02E00120FEF7D0
:104EC00017FD10BD10B5DFF8800990F83C00DFF841
:104ED000781991F83D40C0B2082804DA210049B29F
:104EE000C0B2FEF7A4FB200040B2FBF7D9FCDFF80C
:104EF000580990F83E00800703D50120FBF71CFD00
:104F000002E00020FBF718FDDFF83C0990F85300A1
:104F1000FFF7CEF810BD0A21002200E0521CD2B2E9
:104F2000C9B28A4208D2DFF8F439D2B2D35CC0B237
:104F30009842F3D1012000E00020704710B5040032
:104F4000DFF8040990F8B000002805D0DFF8F80871
:104F500090F8B00004285ED16079FFF7DCFF0028EC
:104F600001D1092058E0DFF8E00890F84A006179A3
:104F7000884207D021786079FEF7D2FD002808D159
:104F8000072049E02078FEF79FFD002801D1072087
:104F900042E06079FEF763FD6178C0B2884201D2D9
:104FA0000A2039E02078DFF8A01881F83C0060780A
:104FB000DFF8941881F83D00A078FFF76AFFE078E9
:104FC000FFF7DBFE2079FF2801D1FE202071207938
:104FD000DFF8741881F849002079FEF7D1FDDFF879
:104FE000680890F84A006179884209D06079DFF852
:104FF000581881F84A006079FEF781FF00F09EFAA8
:10500000A079DFF8441881F85300FFF75BFFFFF742
:1050100028FE012000E0002010BD10B50400DFF8DC
:10502000280890F83C002070DFF81C0890F83D003C
:105030006070DFF8140890F83E00A070FFF7B9FE2A
:10504000E070DFF8040890F849002071DFF8F807F5
:1050500090F84A006071DFF8F00790F85300A071F3
:1050600010BDDFF8E40790F83E00000601D50120EE
:1050700000E00020704770B504000A2589B2EDB247
:10508000B1EB450F1BDB002611E0DFF89008F6B20C
:10509000305CF6B204F81600DFF88008F6B2305C37
:1050A000FEF7DDFCF6B214EB46014870761CF6B252
:1050B000EDB2AE42E9D3EDB26800C0B200E000202C
:1050C00070BD70B504000E001500FEF7E6FD002867
:1050D0003ED0DFF8740790F8B000002805D0DFF864
:1050E000680790F8B000042830D1FEF7D6FDE4B28E
:1050F000844201D30B202CE00120FEF7B0FCEDB27E
:10510000A84201D20A2024E0F6B2022E00DB0126DA
:105110002A00D2B23100C9B22000C0B2FEF77BFD36
:10512000012811D1DFF82007E4B210EB840080F8E9
:105130001961DFF81407E4B210EB840080F81A510B
:10514000FFF7F5FD012004E0FF2002E0002000E071
:10515000092070BD70B504000E00FEF79EFD05002D
:10516000EDB2002D25D0B6B2EDB2032000FB05F064
:1051700086421EDB002613E0F6B2032000FB064049
:105180000670F6B2032000FB0640821CF6B2032034
:1051900000FB0640411C3000C0B2FEF78AFD761CC1
:1051A000F6B2EDB2AE42E7D3032000FB05F0C0B289
:1051B00000E0002070BD10B50400DFF88C0690F808
:1051C000B000002805D0DFF8800690F8B000042871
:1051D0000FD12000C0B2FEF773FF002807D0DFF820
:1051E000680680F85440FFF73CFD012002E00420EF
:1051F00000E0002010BDDFF8500690F85400704722
:10520000DFF8440690F83E00400601D5012000E09A
:105210000020704780B5DFF8301691F8B0100029F3
:1052200005D0DFF8241691F8B01004290DD10068DC
:10523000DFF81416C864DFF81006C06C40B2FEF741
:10524000C9FBFFF70EFD012000E0002002BDDFF8E2
:10525000F815C96C0160704710B504000822DFF82A
:10526000E8152000FFF712F810BD10B50822DFF88E
:10527000D84501002000FFF709F810BD10B5040063
:105280000822DFF8281D2000FFF700F810BD10B538
:105290000822DFF8184D01002000FEF7F7FFFFF7A6
:1052A000E0FC10BD10B504001022DFF83816200015
:1052B000FEF7ECFF10BD10B51022DFF82846010004
:1052C0002000FEF7E3FF10BD10B50C00FFF7CDFF87
:1052D0002000FFF7F0FFFFF7C4FC10BD10B50C0075
:1052E000FFF7BAFF2000FFF7DDFF10BDDFF858051C
:1052F00090F83800DFF8501591F8391050EA012085
:1053000080B2DFF8441591F83A10DFF83C2592F8A6
:105310003B2051EA022189B250EA01407047DFF890
:10532000F41381F83800010089B2090ADFF8E42398
:1053300082F83910010CDFF8DC2382F83A10010CF6
:1053400089B2090ADFF8CC2382F83B10DFF808188D
:10535000C1F8D4027047DFF80008D0F8D4027047D3
:1053600038B50C001022DFF8E45401002800FEF7E5
:105370008DFF1022DFF8D85421002800FEF786FFA9
:1053800031BD38B504000D001000FFF7C8FF29003B
:105390002000FFF7E5FF31BD38B504000D001022F5
:1053A000DFF8A8142000FEF771FF1022DFF8A01428
:1053B0002800FEF76BFF31BD38B504000D00DFF8A3
:1053C000880490F8B000042801D1082029E0FFF7F4
:1053D00052FD002801D1032023E0DFF86C0490F88F
:1053E000B00000281CD1002C1AD4EDB2022D15D12A
:1053F000FEF7B0FA05990498002807D10091002320
:1054000000220121200000F06EF90AE00091002343
:1054100000220121200000F04FF902E0042000E00A
:10542000002032BD80B502F08EFD02F086F9002822
:105430001ED1DFF8140490F83C00FEF745FB00286D
:1054400013D1DFF8040490F84A000A380A2805D27C
:105450000220DFF8F41381F83C0004E00520DFF8B7
:10546000E81381F83C00FFF72DFDFEF701FA06E096
:105470000020DFF8D41381F8B000FFF7A5FC01BDD0
:1054800080B5DFF83C0D02F02CFEFFF7F4FC00289D
:1054900002D0FFF7C7FF01E0FDF7A5FC01BD80B515
:1054A000DFF8780D02F01DFEFEF730FE01BD10B5ED
:1054B0004FF48A710022DFF8F84A2000FEF79CFEC4
:1054C000FFF714FF0100DFF88833DFF880230020A6
:1054D000FEF7DCF9FFF7F6FC00226421DFF8E00CB0
:1054E00002F0EAFD10BD80B5DFF85C0390F8B00073
:1054F000042801D100200AE08020D34981F88500EA
:10550000FFF7D5FF00210120FFF788FC012002BD35
:1055100010B5CD4B93F8B030042B01D100200CE036
:105520008023C94C84F88530FFF72BFFFFF7BFFFBE
:1055300000210120FFF772FC012010BD10B54FF4CF
:105540008A710022DFF8684A2000FEF755FE00202D
:10555000704981F8B00000210020FFF73EFC00F008
:1055600067FA00210020FFF759FCFFF72DFC10BD62
:1055700010B50400674890F8B000042801D1082055
:105580002FE0644890F8850010F07F00614981F8B1
:105590008500604890F8B000002821D1002C1FD46D
:1055A00001205C4981F8B0005A4880F8854000210C
:1055B0000020FFF712FC00F03BFA802C04D0012100
:1055C0000020FFF72BFC03E001210020FFF705FC82
:1055D00000226421DFF8E80B02F06EFD012000E0FC
:1055E000002010BD2DE9F04104000D0016001F0041
:1055F000DDF81C800020C8F80000FFF73CFC002804
:1056000001D1032056E0904890F8B000032803D160
:1056100000208D4981F8B0008B4890F8B000002838
:1056200047D1FEF7E5F910F1010F05D101208649B8
:1056300081F8B00000203DE010F1020F05D10020FC
:10564000814981F8B000072034E0012803DBC8F865
:10565000000006202EE02B00DBB2069A3900300055
:10566000C0B2FEF7C3F8002813D1774890F8B00015
:10567000032805D10020744981F8B000052019E005
:105680000120714981F8B0006F4880F88540012001
:1056900010E010F1010F05D101206B4981F8B00035
:1056A000002007E010F1020F01D1022002E00320E8
:1056B00000E00020BDE8F0811CB5634C94F8B040D8
:1056C000042C01D108200DE000280AD4049C019488
:1056D000DBB2009313000A00D2B20121FFF782FF70
:1056E00000E0002016BD1CB5574C94F8B040042CC7
:1056F00001D108200DE000280AD4049C0194DBB2FB
:10570000009313000A00D2B20021FFF76BFF00E004
:10571000002016BDC80B002010B5DFF83C0490F83F
:10572000E002800605D50120DFF8841881F8120117
:1057300004E00020DFF8781881F81201DFF818047F
:1057400090F80503000605D50120DFF8641881F8FC
:10575000110104E00020DFF8581881F81101DFF88A
:10576000F80390F80503C0060DD5DFF8EC03DFF869
:10577000E81391F80613081890F80703DFF83018BB
:1057800081F8100104E0FF20DFF8241881F81001EF
:10579000DFF8C40390F8070300281AD0DFF8B80335
:1057A00090F80723DFF8B003DFF8AC1391F8061385
:1057B000081810F54271DFF8604B2000FEF766FD17
:1057C000DFF8940390F80703DFF8E41781F80F017E
:1057D00004E00020DFF8D81781F80F01DFF8780324
:1057E00090F84404002805D00120DFF8C41781F8A0
:1057F000130104E00020DFF8B81781F81301D64840
:1058000090F8490400281AD0D34890F84904102889
:1058100010DAD14890F84924DFF8001BDFF89047F0
:105820002000FEF733FDCC4890F84904DFF88017DC
:10583000C87308E00020DFF87817C87303E0002081
:10584000DFF86C17C87310BDC80B0020E00B0020F8
:10585000F00B002080B5C04890F8A201DFF8AC1C26
:105860000870FFF708FB002804D0BB4890F8BB0184
:10587000002807D1B84890F80403401CDFF88C1CBE
:10588000887005E0B44890F80403DFF8801C887045
:10589000B14890F8B001DFF8741C48700020DFF8C0
:1058A0006C1CC870AC4890F91200AB4991F96616AF
:1058B000401A801E01280ADBA74890F91200A64969
:1058C00091F96616401A801EDFF8401CC870A24885
:1058D000D0F86C06DFF8341C48600020DFF82C1C80
:1058E000087201BDD00B00200020DFF8201C0870DA
:1058F0000020DFF8181C88700020DFF8101C4870AA
:105900000020DFF8081CC8700020DFF8001C486089
:105910000020DFF8F81B087270470000C01901086A
:10592000E00C00208C4991F80513C90710D5DFF869
:10593000DC1B0978DFF8D82B1170874991F83614F1
:10594000DFF8CC2B51700121DFF8C42B11711BE063
:10595000814991F80513890716D58021DFF8B02B0E
:1059600011707D4991F8EA12DFF8A42B51700221E1
:10597000DFF89C2B1171784991F80513090703D5BD
:105980000321DFF88C2B11717349097BDFF8802B21
:1059900091707149497BDFF8782BD170C0B2002833
:1059A00037D0DFF80C0690F81201002818D0DFF885
:1059B000600B0079012809D1DFF8CC0BD0F8C400C6
:1059C000401CDFF8C41BC1F8C4002BE0DFF8B80BA3
:1059D000D0F8D000401CDFF8B01BC1F8D00021E0A7
:1059E000DFF82C0B0079012809D1DFF89C0BD0F8E7
:1059F000C000401CDFF8901BC1F8C00012E0DFF8C7
:105A0000880BD0F8CC00401CDFF87C1BC1F8CC0020
:105A100008E0DFF8740BD0F8DC00401CDFF8681BEE
:105A2000C1F8DC00704780B5802001F05AFF01BD4D
:105A300038B5DFF8540B90F84A00FFF76CFA0028ED
:105A40000BD1DFF8480B0078DFF83C1B81F84A00E7
:105A50000020DFF8341B81F84800DFF82C0B90F8A9
:105A60004A00FEF74CFAFDF7F5FDDFF8240BFEF7D0
:105A700082F8DFF8140B90F83E00FFF70AFADFF81F
:105A8000080B90F84900FEF77BF80020FDF768FF4F
:105A9000DFF8F40AC06C40B2FDF79CFFDFF8E80ABB
:105AA00090F85400FEF70CFBFEF7F7F80400012C09
:105AB00014DB002510E0DFF8D00A10EB850090F829
:105AC0001A21DFF8C40A10EB850090F8191128009C
:105AD000C0B2FEF7A0F86D1CA542ECDBFFF7F2F9AF
